S01F00006275696C642F73772F74625F687770652E632F76657269662E733139B8
S3061C00000000DD
S3061C00000100DC
S3061C00000200DB
S3061C00000300DA
S3061C00000400D9
S3061C00000500D8
S3061C00000600D7
S3061C00000700D6
S3061C00000800D5
S3061C00000900D4
S3061C00000A00D3
S3061C00000B00D2
S3061C00000C00D1
S3061C00000D00D0
S3061C00000E00CF
S3061C00000F00CE
S3061C00001000CD
S3061C00001100CC
S3061C00001200CB
S3061C00001300CA
S3061C00001400C9
S3061C00001500C8
S3061C00001600C7
S3061C00001700C6
S3061C00001800C5
S3061C00001900C4
S3061C00001A00C3
S3061C00001B00C2
S3061C00001C00C1
S3061C00001D00C0
S3061C00001E00BF
S3061C00001F00BE
S3061C00002000BD
S3061C00002100BC
S3061C00002200BB
S3061C00002300BA
S3061C00002400B9
S3061C00002500B8
S3061C00002600B7
S3061C00002700B6
S3061C00002800B5
S3061C00002900B4
S3061C00002A00B3
S3061C00002B00B2
S3061C00002C00B1
S3061C00002D00B0
S3061C00002E00AF
S3061C00002F00AE
S3061C00003000AD
S3061C00003100AC
S3061C00003200AB
S3061C00003300AA
S3061C00003400A9
S3061C00003500A8
S3061C00003600A7
S3061C00003700A6
S3061C00003800A5
S3061C00003900A4
S3061C00003A00A3
S3061C00003B00A2
S3061C00003C00A1
S3061C00003D00A0
S3061C00003E009F
S3061C00003F009E
S3061C000040009D
S3061C000041009C
S3061C000042009B
S3061C000043009A
S3061C0000440099
S3061C0000450098
S3061C0000460097
S3061C0000470096
S3061C0000480095
S3061C0000490094
S3061C00004A0093
S3061C00004B0092
S3061C00004C0091
S3061C00004D0090
S3061C00004E008F
S3061C00004F008E
S3061C000050008D
S3061C000051008C
S3061C000052008B
S3061C000053008A
S3061C0000540089
S3061C0000550088
S3061C0000560087
S3061C0000570086
S3061C0000580085
S3061C0000590084
S3061C00005A0083
S3061C00005B0082
S3061C00005C0081
S3061C00005D0080
S3061C00005E007F
S3061C00005F007E
S3061C000060007D
S3061C000061007C
S3061C000062007B
S3061C000063007A
S3061C0000640079
S3061C0000650078
S3061C0000660077
S3061C0000670076
S3061C0000680075
S3061C0000690074
S3061C00006A0073
S3061C00006B0072
S3061C00006C0071
S3061C00006D0070
S3061C00006E006F
S3061C00006F006E
S3061C000070006D
S3061C000071006C
S3061C000072006B
S3061C000073006A
S3061C0000740069
S3061C0000750068
S3061C0000760067
S3061C0000770066
S3061C0000780065
S3061C0000790064
S3061C00007A0063
S3061C00007B0062
S3061C00007C0061
S3061C00007D0060
S3061C00007E005F
S3061C00007F005E
S3061C0000806FEE
S3061C000081005C
S3061C000082401B
S3061C000083005A
S3061C00008473E6
S3061C0000852533
S3061C0000864017
S3061C000087F165
S3061C00008893C2
S3061C00008975DF
S3061C00008AF55E
S3061C00008B0151
S3061C00008C153C
S3061C00008D81CF
S3061C00008E97B8
S3061C00008F024C
S3061C000090014C
S3061C000091004C
S3061C00009293B8
S3061C00009382C8
S3061C00009462E7
S3061C0000950345
S3061C0000961730
S3061C0000970343
S3061C0000980144
S3061C0000990044
S3061C00009A1330
S3061C00009B033F
S3061C00009C63DE
S3061C00009D033D
S3061C00009E231C
S3061C00009FA09E
S3061C0000A0023B
S3061C0000A1003C
S3061C0000A291AA
S3061C0000A30238
S3061C0000A4E356
S3061C0000A5ED4B
S3061C0000A662D5
S3061C0000A7FE38
S3061C0000A8171E
S3061C0000A9F143
S3061C0000AA0132
S3061C0000AB0032
S3061C0000AC131E
S3061C0000AD012F
S3061C0000AE81AE
S3061C0000AFF539
S3061C0000B0131A
S3061C0000B10527
S3061C0000B2002B
S3061C0000B3002A
S3061C0000B49396
S3061C0000B50523
S3061C0000B60027
S3061C0000B70026
S3061C0000B8978E
S3061C0000B90321
S3061C0000BA0023
S3061C0000BB0022
S3061C0000BC938E
S3061C0000BD839D
S3061C0000BE839C
S3061C0000BF46D8
S3061C0000C0E736
S3061C0000C1809C
S3061C0000C20318
S3061C0000C3001A
S3061C0000C42AEF
S3061C0000C58494
S3061C0000C622F5
S3061C0000C78591
S3061C0000C873A2
S3061C0000C90014
S3061C0000CA50C3
S3061C0000CB1002
S3061C0000CC828F
S3061C0000CD8090
S3061C0000CE000F
S3061C0000CF000E
S3061C0000D0000D
S3061C0000D1000C
S3061C0000D2000B
S3061C0000D3000A
S3061C0000D40009
S3061C0000D50008
S3061C0000D60007
S3061C0000D70006
S3061C0000D80005
S3061C0000D90004
S3061C0000DA0003
S3061C0000DB0002
S3061C0000DC0001
S3061C0000DD0000
S3061C0000DED42B
S3061C0000DF45B9
S3061C0000E003FA
S3061C0000E1A854
S3061C0000E205F6
S3061C0000E301F9
S3061C0000E48574
S3061C0000E547B1
S3061C0000E66394
S3061C0000E76A8C
S3061C0000E8D520
S3061C0000E906EE
S3061C0000EAB340
S3061C0000EB876B
S3061C0000ECD71A
S3061C0000ED02EE
S3061C0000EE33BC
S3061C0000EF5797
S3061C0000F0F5F8
S3061C0000F102EA
S3061C0000F2E308
S3061C0000F37C6E
S3061C0000F4D712
S3061C0000F5FEEA
S3061C0000F6B136
S3061C0000F7CF17
S3061C0000F801E4
S3061C0000F9469E
S3061C0000FA25BE
S3061C0000FB439F
S3061C0000FC33AE
S3061C0000FD756B
S3061C0000FEF5EA
S3061C0000FF02DC
S3061C000100B329
S3061C000101D704
S3061C000102D703
S3061C00010302D7
S3061C00010419BF
S3061C000105E2F5
S3061C0001066373
S3061C0001075C79
S3061C000108E0F4
S3061C00010902D1
S3061C00010A933F
S3061C00010B06CB
S3061C00010C00D0
S3061C00010D03CC
S3061C00010E636B
S3061C00010F5C71
S3061C000110E3E9
S3061C00011100CB
S3061C0001128347
S3061C000113C801
S3061C00011405C3
S3061C00011500C7
S3061C0001169333
S3061C00011706BF
S3061C0001187054
S3061C00011905BE
S3061C00011A932F
S3061C00011BF8C9
S3061C00011C4878
S3061C00011D00BF
S3061C00011E635B
S3061C00011F8439
S3061C00012008B4
S3061C00012100BB
S3061C0001229327
S3061C00012306B3
S3061C0001247048
S3061C00012503B4
S3061C0001263680
S3061C000127971E
S3061C0001282391
S3061C00012900B3
S3061C00012AE8CA
S3061C00012B00B1
S3061C00012C931D
S3061C00012D08A7
S3061C00012E1896
S3061C00012F00AD
S3061C00013005A7
S3061C00013106A5
S3061C0001328921
S3061C000133CFDA
S3061C000134D4D4
S3061C0001354562
S3061C0001364660
S3061C000137881D
S3061C0001383371
S3061C000139574C
S3061C00013AF5AD
S3061C00013B029F
S3061C00013CC1DF
S3061C00013DB7E8
S3061C00013EEDB1
S3061C00013FFF9E
S3061C0001401389
S3061C0001410794
S3061C0001420793
S3061C0001430396
S3061C0001449305
S3061C000145088F
S3061C000146187E
S3061C0001470095
S3061C0001482371
S3061C0001490093
S3061C00014AE8AA
S3061C00014B0091
S3061C00014C236D
S3061C00014D800F
S3061C00014E0886
S3061C00014F008D
S3061C000150820A
S3061C000151800B
S3061C000152C2C8
S3061C0001538801
S3061C0001542365
S3061C0001558007
S3061C000156087E
S3061C0001570085
S3061C0001588202
S3061C0001598003
S3061C00015A2A58
S3061C00015B87FA
S3061C00015C710F
S3061C00015DBFC0
S3061C00015E0C72
S3061C00015F4934
S3061C0001605C20
S3061C000161413A
S3061C0001620377
S3061C000163C7B2
S3061C0001640573
S3061C0001650077
S3061C00016693E3
S3061C00016786EF
S3061C000168155F
S3061C0001690073
S3061C00016A1959
S3061C00016BCBA6
S3061C00016C630D
S3061C00016D5A15
S3061C00016EF07E
S3061C00016F006D
S3061C0001703636
S3061C00017187E4
S3061C0001721159
S3061C000173A0C9
S3061C00017491D7
S3061C000175C7A0
S3061C0001760561
S3061C000177075E
S3061C0001780361
S3061C000179461D
S3061C00017AF76B
S3061C00017BFF62
S3061C00017CFD63
S3061C00017D1748
S3061C00017E7DE1
S3061C00017FFA63
S3061C0001800359
S3061C0001814615
S3061C00018285D5
S3061C0001830059
S3061C0001840355
S3061C0001854710
S3061C0001860551
S3061C0001870055
S3061C000188B3A1
S3061C000189381B
S3061C00018AC092
S3061C00018B0051
S3061C00018C133D
S3061C00018D78D7
S3061C00018E2727
S3061C00018F004D
S3061C000190B399
S3061C00019187C4
S3061C0001921733
S3061C0001934108
S3061C00019463E5
S3061C0001950C3B
S3061C000196083E
S3061C0001970045
S3061C0001980341
S3061C000199281B
S3061C00019AC57D
S3061C00019B0041
S3061C00019CC17F
S3061C00019D48F7
S3061C00019E63DB
S3061C00019F003D
S3061C0001A01824
S3061C0001A10F2C
S3061C0001A261D9
S3061C0001A31821
S3061C0001A41325
S3061C0001A538FF
S3061C0001A6181E
S3061C0001A70035
S3061C0001A8B381
S3061C0001A987AC
S3061C0001AA072B
S3061C0001AB41F0
S3061C0001AC250B
S3061C0001AD8BA4
S3061C0001AE1D11
S3061C0001AFE34A
S3061C0001B01319
S3061C0001B187A4
S3061C0001B2F733
S3061C0001B3FF2A
S3061C0001B463C5
S3061C0001B55FC8
S3061C0001B6F036
S3061C0001B70C19
S3061C0001B8B76D
S3061C0001B9071C
S3061C0001BA0022
S3061C0001BB80A1
S3061C0001BC918F
S3061C0001BD0718
S3061C0001BE130B
S3061C0001BF0815
S3061C0001C0001C
S3061C0001C10219
S3061C0001C27D9D
S3061C0001C356C3
S3061C0001C423F5
S3061C0001C5A077
S3061C0001C6070F
S3061C0001C70114
S3061C0001C87D97
S3061C0001C917FC
S3061C0001CAE32F
S3061C0001CB1DF4
S3061C0001CCC749
S3061C0001CDFE11
S3061C0001CE030B
S3061C0001CF46C7
S3061C0001D08587
S3061C0001D1000B
S3061C0001D2FD0D
S3061C0001D357B2
S3061C0001D40107
S3061C0001D5C641
S3061C0001D637CF
S3061C0001D707FE
S3061C0001D80004
S3061C0001D98083
S3061C0001DA50B2
S3061C0001DBC33E
S3061C0001DC03FD
S3061C0001DD47B8
S3061C0001DE05F9
S3061C0001DF00FD
S3061C0001E013E9
S3061C0001E17685
S3061C0001E227D3
S3061C0001E300F9
S3061C0001E401F7
S3061C0001E5CA2D
S3061C0001E650A6
S3061C0001E745B0
S3061C0001E841B3
S3061C0001E948AB
S3061C0001EA638F
S3061C0001EB07EA
S3061C0001EC06EA
S3061C0001ED07E8
S3061C0001EE21CD
S3061C0001EF48A5
S3061C0001F06389
S3061C0001F109E2
S3061C0001F206E4
S3061C0001F309E0
S3061C0001F405E3
S3061C0001F58B5C
S3061C0001F60DD9
S3061C0001F7C322
S3061C0001F813D1
S3061C0001F9875C
S3061C0001FAF7EB
S3061C0001FBFFE2
S3061C0001FC637D
S3061C0001FD5D82
S3061C0001FEF0EE
S3061C0001FF08D5
S3061C000200B724
S3061C00020107D3
S3061C00020200D9
S3061C0002038058
S3061C0002049146
S3061C00020507CF
S3061C00020613C2
S3061C00020708CC
S3061C00020800D3
S3061C00020903CF
S3061C00020A7D54
S3061C00020B567A
S3061C00020C23AC
S3061C00020DA02E
S3061C00020E07C6
S3061C00020F01CB
S3061C0002107D4E
S3061C00021117B3
S3061C000212E3E6
S3061C0002131DAB
S3061C000214C700
S3061C000215FEC8
S3061C000216FDC8
S3061C000217576D
S3061C00021803C0
S3061C000219C7FB
S3061C00021A05BC
S3061C00021B00C0
S3061C00021C01BE
S3061C00021DCBF3
S3061C00021E3786
S3061C00021F06B6
S3061C00022000BB
S3061C000221803A
S3061C0002225861
S3061C000223C2F6
S3061C0002248532
S3061C00022506B0
S3061C00022603B2
S3061C000227C7ED
S3061C000228F6BD
S3061C000229FFB3
S3061C00022A654C
S3061C00022BFFB1
S3061C00022C03AC
S3061C00022D4767
S3061C00022E05A8
S3061C00022F00AC
S3061C000230A10A
S3061C0002314664
S3061C0002322584
S3061C0002338B1D
S3061C0002346344
S3061C00023503A3
S3061C000236D7CE
S3061C00023700A4
S3061C0002388221
S3061C0002398022
S3061C00023A138E
S3061C00023B8719
S3061C00023CF7A8
S3061C00023DFF9F
S3061C00023EE3BA
S3061C00023F5D3F
S3061C000240F0AB
S3061C000241FE9C
S3061C000242B7E2
S3061C0002430791
S3061C0002440097
S3061C0002458016
S3061C0002469104
S3061C000247078D
S3061C0002481380
S3061C000249068C
S3061C00024A0091
S3061C00024B028E
S3061C00024CFD92
S3061C00024D5638
S3061C00024E90FD
S3061C00024FC3C9
S3061C0002507D0E
S3061C0002511773
S3061C000252E3A6
S3061C0002531E6A
S3061C000254D7B0
S3061C000255FE88
S3061C0002568203
S3061C0002578004
S3061C000258374C
S3061C000259077B
S3061C00025A0081
S3061C00025B8000
S3061C00025C136C
S3061C00025D0678
S3061C00025E007D
S3061C00025F0379
S3061C000260502B
S3061C000261C3B7
S3061C0002620376
S3061C0002634731
S3061C0002640572
S3061C0002650076
S3061C0002661362
S3061C000267066E
S3061C00026880F3
S3061C000269076B
S3061C00026A1160
S3061C00026B8BE5
S3061C00026C1956
S3061C00026DC3AB
S3061C00026E135A
S3061C00026F0666
S3061C00027080EB
S3061C0002710565
S3061C0002723732
S3061C0002730761
S3061C0002740067
S3061C00027580E6
S3061C0002765015
S3061C000277C3A1
S3061C0002780360
S3061C000279471B
S3061C00027A055C
S3061C00027B0060
S3061C00027CA5BA
S3061C00027DBF9F
S3061C00027EF964
S3061C00027F1745
S3061C0002803526
S3061C000281B7A3
S3061C0002823722
S3061C0002830751
S3061C0002840057
S3061C00028580D6
S3061C0002861342
S3061C000287064E
S3061C0002880053
S3061C000289034F
S3061C00028A5001
S3061C00028BC38D
S3061C00028C034C
S3061C00028D4707
S3061C00028E0548
S3061C00028F004C
S3061C00029095B6
S3061C000291B793
S3061C000292BA8F
S3061C00029387C1
S3061C00029481C6
S3061C000295B78F
S3061C000296BA8B
S3061C00029787BD
S3061C0002984102
S3061C000299B78B
S3061C00029A5DE4
S3061C00029B71CF
S3061C00029C1C23
S3061C00029D0836
S3061C00029EA29B
S3061C00029FC478
S3061C0002A0A695
S3061C0002A1C278
S3061C0002A2CA6F
S3061C0002A3C078
S3061C0002A486B1
S3061C0002A5C670
S3061C0002A64EE7
S3061C0002A7DE56
S3061C0002A83EF5
S3061C0002A9D65C
S3061C0002AA131E
S3061C0002AB042C
S3061C0002ACD05F
S3061C0002AD022C
S3061C0002AE939A
S3061C0002AF0428
S3061C0002B0002B
S3061C0002B10327
S3061C0002B21316
S3061C0002B3091F
S3061C0002B430F7
S3061C0002B50224
S3061C0002B683A2
S3061C0002B747DD
S3061C0002B8061D
S3061C0002B90022
S3061C0002BA051C
S3061C0002BB061A
S3061C0002BC819E
S3061C0002BDCF4F
S3061C0002BE130A
S3061C0002BF0715
S3061C0002C050CB
S3061C0002C10218
S3061C0002C263B6
S3061C0002C38098
S3061C0002C4E730
S3061C0002C50214
S3061C0002C637DE
S3061C0002C7070D
S3061C0002C80013
S3061C0002C98092
S3061C0002CA5CB5
S3061C0002CBC34D
S3061C0002CC838C
S3061C0002CD47C7
S3061C0002CE0607
S3061C0002CF000C
S3061C0002D00506
S3061C0002D10604
S3061C0002D2F514
S3061C0002D3F711
S3061C0002D4B651
S3061C0002D540C6
S3061C0002D626DF
S3061C0002D744C0
S3061C0002D8966D
S3061C0002D944BE
S3061C0002DA06FB
S3061C0002DB49B7
S3061C0002DCF20D
S3061C0002DD59A5
S3061C0002DE619C
S3061C0002DF619B
S3061C0002E08279
S3061C0002E1807A
S3061C0002E28376
S3061C0002E347B1
S3061C0002E4C136
S3061C0002E501F5
S3061C0002E602F3
S3061C0002E7D024
S3061C0002E8D122
S3061C0002E99B57
S3061C0002EA23CE
S3061C0002EB0EE2
S3061C0002ECF1FE
S3061C0002ED00EE
S3061C0002EE23CA
S3061C0002EF02EA
S3061C0002F001EA
S3061C0002F102E8
S3061C0002F201E8
S3061C0002F348A0
S3061C0002F48166
S3061C0002F545A1
S3061C0002F68164
S3061C0002F7489C
S3061C0002F801E2
S3061C0002F9479B
S3061C0002FA01E0
S3061C0002FB459B
S3061C0002FC05DA
S3061C0002FD06D8
S3061C0002FE835A
S3061C0002FF4795
S3061C000300F6E4
S3061C000301FFDA
S3061C000302E9EF
S3061C000303DBFC
S3061C0003046373
S3061C000305864F
S3061C000306874D
S3061C0003070AC9
S3061C000308636F
S3061C0003098A47
S3061C00030A9739
S3061C00030B0AC5
S3061C00030C636B
S3061C00030D8548
S3061C00030E27A5
S3061C00030F0BC0
S3061C0003104585
S3061C000311EBDE
S3061C0003126365
S3061C000313883F
S3061C00031408BE
S3061C00031500C5
S3061C00031603C1
S3061C000317477C
S3061C000318C101
S3061C00031901C0
S3061C00031A13AD
S3061C00031B6758
S3061C00031C17A7
S3061C00031D00BD
S3061C00031E2399
S3061C00031F0EAD
S3061C000320E1D9
S3061C00032100B9
S3061C0003226355
S3061C00032309AE
S3061C00032408AE
S3061C00032500B5
S3061C00032603B1
S3061C000327476C
S3061C000328C1F1
S3061C00032901B0
S3061C00032A862A
S3061C00032B05AA
S3061C00032C7539
S3061C00032D9B12
S3061C00032ED9D3
S3061C00032F8D1E
S3061C0003302387
S3061C0003310E9B
S3061C000332B1F7
S3061C00033300A7
S3061C0003349313
S3061C0003358520
S3061C000336079D
S3061C000337FDA6
S3061C000338138F
S3061C000339F5AC
S3061C00033AF5AB
S3061C00033B0F90
S3061C00033C2579
S3061C00033D4756
S3061C00033E6339
S3061C00033F7922
S3061C000340A7F3
S3061C0003410891
S3061C0003421385
S3061C0003430790
S3061C000344E0B6
S3061C0003450293
S3061C0003466331
S3061C0003478211
S3061C000348E7AB
S3061C0003490E83
S3061C00034A137D
S3061C00034B0788
S3061C00034C90FE
S3061C00034D0687
S3061C00034E6329
S3061C00034F8902
S3061C000350E7A3
S3061C0003511673
S3061C0003526325
S3061C0003537D0A
S3061C000354F78F
S3061C0003550E77
S3061C0003561371
S3061C000357077C
S3061C0003583052
S3061C000359077A
S3061C00035A631D
S3061C00035B83FC
S3061C00035CE797
S3061C00035D1469
S3061C00035E6319
S3061C00035F6813
S3061C000360F783
S3061C0003611069
S3061C0003621365
S3061C0003630770
S3061C000364F086
S3061C000365066F
S3061C0003666311
S3061C00036786ED
S3061C000368E78B
S3061C000369125F
S3061C00036A135D
S3061C00036B0768
S3061C00036C006E
S3061C00036D0766
S3061C00036EE389
S3061C00036F94D7
S3061C000370E783
S3061C000371F475
S3061C0003720365
S3061C0003734720
S3061C000374C1A5
S3061C0003750164
S3061C0003761351
S3061C00037767FC
S3061C000378273B
S3061C0003790061
S3061C00037A233D
S3061C00037B0E51
S3061C00037CE17D
S3061C00037D005D
S3061C00037E93C9
S3061C00037F87D4
S3061C00038087D3
S3061C000381FA5F
S3061C00038293C5
S3061C000383B7A0
S3061C000384173F
S3061C0003850055
S3061C0003860351
S3061C000387470C
S3061C000388C191
S3061C0003890150
S3061C00038A85CB
S3061C00038B8BC4
S3061C00038C6DE1
S3061C00038D9BB2
S3061C00038E8AC2
S3061C00038F0744
S3061C000390D971
S3061C0003918FBA
S3061C00039288C0
S3061C0003934205
S3061C0003944105
S3061C00039547FE
S3061C0003966CD8
S3061C000397083B
S3061C00039893AF
S3061C00039989B8
S3061C00039A46FA
S3061C00039B003F
S3061C00039C3A04
S3061C00039DD469
S3061C00039E2319
S3061C00039F0E2D
S3061C0003A0F149
S3061C0003A10039
S3061C0003A23206
S3061C0003A3C671
S3061C0003A42D09
S3061C0003A53BFA
S3061C0003A668CC
S3061C0003A7082B
S3061C0003A85DD5
S3061C0003A93BF6
S3061C0003AACE62
S3061C0003AB86A9
S3061C0003AC32FC
S3061C0003AD46E7
S3061C0003AE210B
S3061C0003AFB774
S3061C0003B00525
S3061C0003B147E2
S3061C0003B20523
S3061C0003B345E2
S3061C0003B4A185
S3061C0003B5B76E
S3061C0003B6051F
S3061C0003B748DB
S3061C0003B8859D
S3061C0003B945DC
S3061C0003BA8997
S3061C0003BBB768
S3061C0003BC8599
S3061C0003BD48D5
S3061C0003BE3DDF
S3061C0003BFBF5C
S3061C0003C00317
S3061C0003C147D2
S3061C0003C2C157
S3061C0003C30116
S3061C0003C40E08
S3061C0003C50510
S3061C0003C65DB7
S3061C0003C79B78
S3061C0003C859B9
S3061C0003C98D84
S3061C0003CA23ED
S3061C0003CB0E01
S3061C0003CCA16D
S3061C0003CD000D
S3061C0003CE917B
S3061C0003CFB754
S3061C0003D00109
S3061C0003D148C1
S3061C0003D2A563
S3061C0003D348BF
S3061C0003D415F1
S3061C0003D543C2
S3061C0003D629DB
S3061C0003D74EB5
S3061C0003D813EF
S3061C0003D9877A
S3061C0003DAF709
S3061C0003DBF906
S3061C0003DC13EB
S3061C0003DDF508
S3061C0003DEF507
S3061C0003DF0FEC
S3061C0003E013E7
S3061C0003E17782
S3061C0003E2F701
S3061C0003E30FE8
S3061C0003E46393
S3061C0003E5FCF9
S3061C0003E6A84C
S3061C0003E700F3
S3061C0003E8935F
S3061C0003E9856C
S3061C0003EAF7F9
S3061C0003EBFBF4
S3061C0003EC935B
S3061C0003EDF5F8
S3061C0003EEF5F7
S3061C0003EF0FDC
S3061C0003F06387
S3061C0003F16287
S3061C0003F2E305
S3061C0003F302E5
S3061C0003F49353
S3061C0003F58560
S3061C0003F6974D
S3061C0003F7FAE9
S3061C0003F8637F
S3061C0003F9449D
S3061C0003FABE22
S3061C0003FB02DD
S3061C0003FC13CB
S3061C0003FD17C6
S3061C0003FE28B4
S3061C0003FF00DB
S3061C00040005D4
S3061C00040106D2
S3061C0004024295
S3061C000403973F
S3061C0004048352
S3061C000405478D
S3061C000406F6DD
S3061C000407FFD3
S3061C00040806CB
S3061C00040907C9
S3061C00040A339C
S3061C00040B8846
S3061C00040CE5E8
S3061C00040D00CC
S3061C00040E9338
S3061C00040F8545
S3061C00041007C2
S3061C000411FDCB
S3061C000412D9EE
S3061C000413B70F
S3061C0004146362
S3061C000415665E
S3061C000416B310
S3061C00041700C2
S3061C000418932E
S3061C000419853B
S3061C00041A9728
S3061C00041BFCC2
S3061C00041CE3DA
S3061C00041D506C
S3061C00041EBEFD
S3061C00041FFEBC
S3061C0004204277
S3061C000421D0E8
S3061C00042213A4
S3061C00042307AF
S3061C000424E0D5
S3061C00042502B2
S3061C000426E3D0
S3061C0004279220
S3061C000428E7CA
S3061C000429F2BE
S3061C00042A832C
S3061C00042B4767
S3061C00042CC1EC
S3061C00042D01AB
S3061C00042EA506
S3061C00042F4565
S3061C0004309316
S3061C000431E7C1
S3061C0004321790
S3061C00043300A6
S3061C0004342382
S3061C0004350E96
S3061C000436F1B2
S3061C00043700A2
S3061C000438059C
S3061C000439069A
S3061C00043A831C
S3061C00043B4757
S3061C00043CF6A7
S3061C00043DFF9D
S3061C00043E1388
S3061C00043F8713
S3061C0004400792
S3061C000441FD9B
S3061C0004421384
S3061C000443771F
S3061C000444F79E
S3061C0004450F85
S3061C000446E3B0
S3061C000447F999
S3061C000448E5AC
S3061C000449FE92
S3061C00044A018E
S3061C00044BB7D7
S3061C00044C137A
S3061C00044D0785
S3061C00044E800B
S3061C00044F0585
S3061C000450E3A6
S3061C0004518701
S3061C000452E7A0
S3061C000453F294
S3061C0004546322
S3061C000455780C
S3061C000456F78C
S3061C0004570280
S3061C000458136E
S3061C0004590779
S3061C00045A304F
S3061C00045B0678
S3061C00045C631A
S3061C00045D9EDE
S3061C00045EE794
S3061C00045F0476
S3061C0004600376
S3061C000461C7B1
S3061C0004620671
S3061C0004630076
S3061C000464B7BE
S3061C000465076D
S3061C0004660073
S3061C00046780F2
S3061C000468D899
S3061C000469C3AD
S3061C00046A91DE
S3061C00046B0668
S3061C00046CA9C4
S3061C00046DB5B7
S3061C00046E1358
S3061C00046F0763
S3061C0004705019
S3061C0004710761
S3061C0004726304
S3061C00047398CE
S3061C000474E77E
S3061C000475065E
S3061C000476A9BA
S3061C000477471B
S3061C00047888D9
S3061C000479421E
S3061C00047A6CF3
S3061C00047B0856
S3061C00047C93CA
S3061C00047D89D3
S3061C00047E4615
S3061C00047F005A
S3061C0004803E1B
S3061C000481D484
S3061C0004820552
S3061C000483B79F
S3061C000484E372
S3061C00048588CC
S3061C000486074C
S3061C000487E46E
S3061C000488133E
S3061C0004890749
S3061C00048A50FF
S3061C00048B024C
S3061C00048CE36A
S3061C00048D8DBF
S3061C00048EE764
S3061C00048FE268
S3061C0004901D2C
S3061C000491B593
S3061C000492A1A6
S3061C00049347FF
S3061C00049488BD
S3061C0004954202
S3061C0004966CD7
S3061C000497083A
S3061C00049893AE
S3061C00049989B7
S3061C00049A46F9
S3061C00049B003E
S3061C00049C3EFF
S3061C00049DD468
S3061C00049E112A
S3061C00049FB783
S3061C0004A09C9D
S3061C0004A142F6
S3061C0004A268CF
S3061C0004A3082E
S3061C0004A493A2
S3061C0004A589AB
S3061C0004A646ED
S3061C0004A70032
S3061C0004A83EF3
S3061C0004A9D65A
S3061C0004AA32FD
S3061C0004ABC668
S3061C0004AC4DE0
S3061C0004AD39F3
S3061C0004AE1C0F
S3061C0004AF0822
S3061C0004B03EEB
S3061C0004B1D652
S3061C0004B2CE59
S3061C0004B386A0
S3061C0004B432F3
S3061C0004B546DE
S3061C0004B60122
S3061C0004B7B56D
S3061C0004B8130E
S3061C0004B90719
S3061C0004BA40DF
S3061C0004BB0618
S3061C0004BCE33A
S3061C0004BD9D7F
S3061C0004BEE734
S3061C0004BFDE3C
S3061C0004C0A970
S3061C0004C147D1
S3061C0004C2888F
S3061C0004C342D4
S3061C0004C43ED7
S3061C0004C5D440
S3061C0004C69380
S3061C0004C78989
S3061C0004C846CB
S3061C0004C90010
S3061C0004CA63AC
S3061C0004CB44CA
S3061C0004CC0508
S3061C0004CD000C
S3061C0004CE6C9F
S3061C0004CF0802
S3061C0004D0C940
S3061C0004D1BD4B
S3061C0004D29374
S3061C0004D307FF
S3061C0004D4D035
S3061C0004D50202
S3061C0004D633D0
S3061C0004D705FD
S3061C0004D8A061
S3061C0004D940C0
S3061C0004DA23DC
S3061C0004DB02FC
S3061C0004DCF10C
S3061C0004DD02FA
S3061C0004DE6C8F
S3061C0004DF08F2
S3061C0004E0C930
S3061C0004E1B543
S3061C0004E213E4
S3061C0004E307EF
S3061C0004E48075
S3061C0004E507ED
S3061C0004E6E310
S3061C0004E78C66
S3061C0004E8E70A
S3061C0004E9E808
S3061C0004EAF1FE
S3061C0004EBB33B
S3061C0004EC39B4
S3061C0004ED717B
S3061C0004EE32B9
S3061C0004EFD416
S3061C0004F037B2
S3061C0004F106E2
S3061C0004F201E6
S3061C0004F31CCA
S3061C0004F42EB7
S3061C0004F5D212
S3061C0004F68360
S3061C0004F725BD
S3061C0004F8469B
S3061C0004F90CD4
S3061C0004FA2AB5
S3061C0004FB8658
S3061C0004FC37A6
S3061C0004FD05D7
S3061C0004FE01DA
S3061C0004FF1CBE
S3061C00050013C5
S3061C00050103D4
S3061C0005024195
S3061C00050302D3
S3061C00050403D1
S3061C00050525AE
S3061C000506854D
S3061C0005070CC5
S3061C000508369A
S3061C000509D6F9
S3061C00050A9A34
S3061C00050B8647
S3061C00050C06C6
S3061C00050DCEFD
S3061C00050E3A90
S3061C00050FD8F1
S3061C0005103E8A
S3061C000511DAED
S3061C0005124284
S3061C000513DCE9
S3061C000514467E
S3061C000515DEE5
S3061C0005161AA8
S3061C000517C6FB
S3061C0005184977
S3061C000519338C
S3061C00051AF2CC
S3061C00051B407D
S3061C00051C219B
S3061C00051D615A
S3061C00051E8238
S3061C00051F8039
S3061C00052001B7
S3061C00052111A6
S3061C00052202B4
S3061C000523C6EF
S3061C000524B7FD
S3061C00052507AC
S3061C00052610A2
S3061C00052700B1
S3061C000528DCD4
S3061C000529436C
S3061C00052A06A8
S3061C00052BCEDF
S3061C00052C228A
S3061C00052DCCDF
S3061C00052E6347
S3061C00052FC0E9
S3061C00053007A1
S3061C00053100A7
S3061C000532B7EF
S3061C000533079E
S3061C0005341094
S3061C00053500A3
S3061C0005364161
S3061C000537673A
S3061C000538D8C8
S3061C000539DBC4
S3061C00053A3767
S3061C00053B3766
S3061C00053C2379
S3061C00053D009B
S3061C00053E1387
S3061C00053F0792
S3061C0005405741
S3061C000541C0D7
S3061C00054298FE
S3061C000543D3C2
S3061C000544375D
S3061C000545078C
S3061C0005460191
S3061C0005471C75
S3061C000548137D
S3061C0005490788
S3061C00054A0787
S3061C00054B0786
S3061C00054CB8D4
S3061C00054DC3C8
S3061C00054E0585
S3061C00054F4742
S3061C000550B8D0
S3061C000551CBBC
S3061C000552374F
S3061C0005530481
S3061C0005540183
S3061C0005551C67
S3061C0005562161
S3061C000557473A
S3061C000558136D
S3061C000559047B
S3061C00055A047A
S3061C00055B0A73
S3061C00055CF884
S3061C00055DCBB0
S3061C00055E1367
S3061C00055F0772
S3061C0005604038
S3061C0005610275
S3061C0005622353
S3061C000563ACC9
S3061C000564076D
S3061C0005650271
S3061C000566234F
S3061C000567A8C9
S3061C0005680769
S3061C000569026D
S3061C00056A234B
S3061C00056BA6C7
S3061C00056C0765
S3061C00056D0269
S3061C00056E2347
S3061C00056FA4C5
S3061C0005700761
S3061C0005710265
S3061C0005722343
S3061C000573A2C3
S3061C000574075D
S3061C0005750261
S3061C000576E082
S3061C000577C79A
S3061C000578F868
S3061C000579CF90
S3061C00057A233B
S3061C00057BA0BD
S3061C00057C0755
S3061C00057D005B
S3061C00057E73E7
S3061C00057F0059
S3061C0005805008
S3061C0005811047
S3061C00058299BD
S3061C00058367EE
S3061C0005840C48
S3061C0005854013
S3061C00058693BF
S3061C00058787CA
S3061C000588C789
S3061C0005895EF1
S3061C00058A63EB
S3061C00058B85C8
S3061C00058CF557
S3061C00058D004B
S3061C00058EB298
S3061C00058F4702
S3061C00059085C3
S3061C0005910740
S3061C0005923E08
S3061C000593C67F
S3061C000594B78D
S3061C000595370C
S3061C000596FE44
S3061C0005970041
S3061C00059858E8
S3061C00059940FF
S3061C00059A93AB
S3061C00059B87B6
S3061C00059CC775
S3061C00059D95A6
S3061C00059E63D7
S3061C00059F0534
S3061C0005A0F741
S3061C0005A10037
S3061C0005A2B284
S3061C0005A347EE
S3061C0005A485AF
S3061C0005A5072C
S3061C0005A63EF4
S3061C0005A7C66B
S3061C0005A8E54B
S3061C0005A967C8
S3061C0005AA1816
S3061C0005AB44E9
S3061C0005AC9399
S3061C0005AD87A4
S3061C0005AED753
S3061C0005AF1811
S3061C0005B063C5
S3061C0005B10522
S3061C0005B2F72F
S3061C0005B30025
S3061C0005B4B272
S3061C0005B547DC
S3061C0005B6859D
S3061C0005B7071A
S3061C0005B83EE2
S3061C0005B9C659
S3061C0005BAB767
S3061C0005BB37E6
S3061C0005BCFE1E
S3061C0005BD001B
S3061C0005BE58C2
S3061C0005BF44D5
S3061C0005C09385
S3061C0005C18790
S3061C0005C2C74F
S3061C0005C39580
S3061C0005C463B1
S3061C0005C5050E
S3061C0005C6F71B
S3061C0005C70011
S3061C0005C8B25E
S3061C0005C947C8
S3061C0005CA8589
S3061C0005CB0706
S3061C0005CC3ECE
S3061C0005CDC645
S3061C0005CEB753
S3061C0005CFE722
S3061C0005D00AFE
S3061C0005D10007
S3061C0005D218EE
S3061C0005D348BD
S3061C0005D49371
S3061C0005D5877C
S3061C0005D647BB
S3061C0005D7946D
S3061C0005D8639D
S3061C0005D905FA
S3061C0005DAF707
S3061C0005DB00FD
S3061C0005DCB24A
S3061C0005DD47B4
S3061C0005DE8575
S3061C0005DF07F2
S3061C0005E03EBA
S3061C0005E1C631
S3061C0005E2B73F
S3061C0005E3975E
S3061C0005E4F5FF
S3061C0005E500F3
S3061C0005E6589A
S3061C0005E748A9
S3061C0005E8935D
S3061C0005E98768
S3061C0005EA6787
S3061C0005EB8C61
S3061C0005EC6389
S3061C0005ED05E6
S3061C0005EEF7F3
S3061C0005EF00E9
S3061C0005F0B236
S3061C0005F147A0
S3061C0005F28561
S3061C0005F307DE
S3061C0005F43EA6
S3061C0005F5C61D
S3061C0005F6E5FD
S3061C0005F7677A
S3061C0005F818C8
S3061C0005F94C93
S3061C0005FA934B
S3061C0005FB8756
S3061C0005FCD705
S3061C0005FD18C3
S3061C0005FE6377
S3061C0005FF05D4
S3061C000600F7E0
S3061C00060100D6
S3061C000602B223
S3061C000603478D
S3061C000604854E
S3061C00060507CB
S3061C0006063E93
S3061C000607C60A
S3061C000608B718
S3061C0006099737
S3061C00060AF5D8
S3061C00060B00CC
S3061C00060C5873
S3061C00060D4C7E
S3061C00060E9336
S3061C00060F8741
S3061C0006106760
S3061C0006118C3A
S3061C0006126362
S3061C0006130BB9
S3061C000614F7CC
S3061C00061500C2
S3061C000616B20F
S3061C0006174779
S3061C000618853A
S3061C00061907B7
S3061C00061A3E7F
S3061C00061BC6F6
S3061C00061CB704
S3061C00061DC7F3
S3061C00061E0BAE
S3061C00061F00B8
S3061C0006209324
S3061C000621872F
S3061C000622179E
S3061C000623159F
S3061C0006246350
S3061C00062505AD
S3061C000626F7BA
S3061C00062700B0
S3061C000628B2FD
S3061C0006294767
S3061C00062A8528
S3061C00062B07A5
S3061C00062C3E6D
S3061C00062DC6E4
S3061C00062E3772
S3061C00062F05A3
S3061C00063001A6
S3061C0006311C8A
S3061C0006321392
S3061C000633059F
S3061C000634059E
S3061C00063500A2
S3061C0006365D44
S3061C0006373D63
S3061C0006384C53
S3061C000639405E
S3061C00063A3766
S3061C00063B0597
S3061C00063C019A
S3061C00063D1C7E
S3061C00063E1386
S3061C00063F0593
S3061C000640C5D2
S3061C0006410096
S3061C0006426D28
S3061C000643355F
S3061C0006440C87
S3061C000645444E
S3061C000646375A
S3061C000647058B
S3061C000648018E
S3061C0006491C72
S3061C00064A137A
S3061C00064B0587
S3061C00064C8506
S3061C00064D0189
S3061C00064E7910
S3061C00064F3D4B
S3061C0006504C3B
S3061C0006514442
S3061C000652374E
S3061C000653057F
S3061C0006540182
S3061C0006551C66
S3061C000656136E
S3061C000657057B
S3061C000658453A
S3061C000659027C
S3061C00065A4934
S3061C00065B3D3F
S3061C00065C0C6F
S3061C00065D4832
S3061C00065E3742
S3061C00065F0573
S3061C0006600176
S3061C0006611C5A
S3061C0006621362
S3061C000663056F
S3061C000664056E
S3061C000665036F
S3061C0006665918
S3061C000667353B
S3061C0006684C23
S3061C0006694826
S3061C00066A3736
S3061C00066B0567
S3061C00066C016A
S3061C00066D1C4E
S3061C00066E1356
S3061C00066F0563
S3061C000670C5A2
S3061C0006710363
S3061C000672ADB8
S3061C0006733D27
S3061C0006740C57
S3061C0006754C16
S3061C000676372A
S3061C000677055B
S3061C000678015E
S3061C0006791C42
S3061C00067A134A
S3061C00067B0557
S3061C00067C85D6
S3061C00067D0456
S3061C00067EBD9C
S3061C00067F3523
S3061C0006804C0B
S3061C0006814C0A
S3061C000682371E
S3061C000683054F
S3061C0006840152
S3061C0006851C36
S3061C000686133E
S3061C000687054B
S3061C000688450A
S3061C0006890549
S3061C00068A8DC0
S3061C00068B3517
S3061C00068C0C3F
S3061C00068D50FA
S3061C00068E3712
S3061C00068F0543
S3061C0006900146
S3061C0006911C2A
S3061C0006921332
S3061C000693053F
S3061C000694053E
S3061C000695063C
S3061C00069699A8
S3061C0006973D03
S3061C000698320D
S3061C00069947F7
S3061C00069AF24B
S3061C00069B40FC
S3061C00069C62D9
S3061C00069D44F6
S3061C00069EB782
S3061C00069F0731
S3061C0006A00037
S3061C0006A180B6
S3061C0006A2989D
S3061C0006A3C371
S3061C0006A43201
S3061C0006A545ED
S3061C0006A6052C
S3061C0006A761CF
S3061C0006A882AD
S3061C0006A980AE
S3061C0100006478
S3061C0100015B80
S3061C01000230AA
S3061C0100035D7C
S3061C0100043D9B
S3061C01000525B2
S3061C0100066472
S3061C0100070ACB
S3061C01000800D4
S3061C01000900D3
S3061C01000A00D2
S3061C01000B00D1
S3061C01000C646C
S3061C01000D5B74
S3061C01000E319D
S3061C01000F5D70
S3061C0100103D8F
S3061C01001125A6
S3061C0100126466
S3061C0100130ABF
S3061C01001400C8
S3061C01001500C7
S3061C01001600C6
S3061C01001700C5
S3061C0100186460
S3061C0100195B68
S3061C01001A3290
S3061C01001B5D64
S3061C01001C3D83
S3061C01001D259A
S3061C01001E645A
S3061C01001F0AB3
S3061C01002000BC
S3061C01002100BB
S3061C01002200BA
S3061C01002300B9
S3061C0100246454
S3061C0100255B5C
S3061C0100263383
S3061C0100275D58
S3061C0100283D77
S3061C010029258E
S3061C01002A644E
S3061C01002B0AA7
S3061C01002C00B0
S3061C01002D00AF
S3061C01002E00AE
S3061C01002F00AD
S3061C0100306448
S3061C0100315B50
S3061C0100323476
S3061C0100335D4C
S3061C0100343D6B
S3061C0100352582
S3061C0100366442
S3061C0100370A9B
S3061C01003800A4
S3061C01003900A3
S3061C01003A00A2
S3061C01003B00A1
S3061C01003C643C
S3061C01003D5B44
S3061C01003E3569
S3061C01003F5D40
S3061C0100403D5F
S3061C0100412576
S3061C0100426436
S3061C0100430A8F
S3061C0100440098
S3061C0100450097
S3061C0100460096
S3061C0100470095
S3061C0100486430
S3061C0100495B38
S3061C01004A365C
S3061C01004B5D34
S3061C01004C3D53
S3061C01004D256A
S3061C01004E642A
S3061C01004F0A83
S3061C010050008C
S3061C010051008B
S3061C010052008A
S3061C0100530089
S3061C0100546424
S3061C0100555B2C
S3061C010056374F
S3061C0100575D28
S3061C0100583D47
S3061C010059255E
S3061C01005A641E
S3061C01005B0A77
S3061C01005C0080
S3061C01005D007F
S3061C01005E007E
S3061C01005F007D
S3061C0100606418
S3061C0100615B20
S3061C0100623842
S3061C0100635D1C
S3061C0100643D3B
S3061C0100652552
S3061C0100666412
S3061C0100670A6B
S3061C0100680074
S3061C0100690073
S3061C01006A0072
S3061C01006B0071
S3061C010070E28A
S3061C010071F675
S3061C010072402A
S3061C0100730069
S3061C0100742741
S3061C010075C0A7
S3061C0100761254
S3061C0100770065
S3061C010078FD67
S3061C010079055E
S3061C01007A085A
S3061C01007B0061
S3061C01007C2739
S3061C01007DC09F
S3061C01007E124C
S3061C01007F005D
S3061C0100800A52
S3061C0100810655
S3061C0100820852
S3061C0100830059
S3061C0100841840
S3061C010085A4B3
S3061C0100860452
S3061C0100870055
S3061C010088FD57
S3061C010089054E
S3061C01008A084A
S3061C01008B0051
S3061C01008C1838
S3061C01008DA4AB
S3061C01008E044A
S3061C01008F004D
S3061C010090C28A
S3061C01009166E5
S3061C0100920347
S3061C0100930049
S3061C0100940048
S3061C0100950047
S3061C0100960046
S3061C0100970045
S3061C0100980044
S3061C0100990043
S3061C01009A0042
S3061C01009B0041
S3061C01009C0040
S3061C01009D003F
S3061C01009E003E
S3061C01009F003D
S3061C0100A0EC50
S3061C0100A165D6
S3061C0100A2003A
S3061C0100A30039
S3061C0100A45CDC
S3061C0100A5290E
S3061C0100A6FE38
S3061C0100A70035
S3061C0100A88DA7
S3061C0100A991A2
S3061C0100AA0131
S3061C0100AB0031
S3061C0100AC5CD4
S3061C0100AD2906
S3061C0100AEFE30
S3061C0100AF002D
S3061C0100B044E8
S3061C0100B1D952
S3061C0100B20A20
S3061C0100B30029
S3061C0100B4C662
S3061C0100B5889F
S3061C0100B6F531
S3061C0100B70025
S3061C0100B88D97
S3061C0100B99192
S3061C0100BA0121
S3061C0100BB0021
S3061C0100BCC65A
S3061C0100BD8897
S3061C0100BEF529
S3061C0100BF001D
S3061C0100C051CB
S3061C0100C1C15A
S3061C0100C20B0F
S3061C0100C30019
S7051C0000845A
